:04000000D7EF00F046
:100008004C82FACF0EF0FBCF0FF0D9CF10F0DACF39
:1000180011F0F3CF12F0F4CF13F0F2A816EF00F0BE
:1000280018EF00F021EF00F0F2A21DEF00F01FEF33
:1000380000F021EF00F081EC14F0F0A626EF00F0BC
:1000480028EF00F031EF00F0F0A02DEF00F02FEFD7
:1000580000F031EF00F07FEC14F0F0A836EF00F07C
:1000680038EF00F041EF00F0F0A23DEF00F03FEF75
:1000780000F041EF00F07DEC14F09DAC46EF00F08D
:1000880048EF00F051EF00F09EAC4DEF00F04FEF5D
:1000980000F051EF00F087EC14F0F2AA56EF00F0F0
:1000A80058EF00F061EF00F0F2A45DEF00F05FEFB1
:1000B80000F061EF00F070EC14F09DA066EF00F026
:1000C80068EF00F071EF00F09EA06DEF00F06FEFA9
:1000D80000F071EF00F069EC14F09DA276EF00F0EB
:1000E80078EF00F079EF00F09E50A0A27EEF00F0CC
:1000F80080EF00F089EF00F0A1A285EF00F087EF14
:1001080000F089EF00F062EC14F09DA48EEF00F08F
:1001180090EF00F099EF00F09EA495EF00F097EFB4
:1001280000F099EF00F085EC14F0A0A09EEF00F02D
:10013800A0EF00F0A9EF00F0A1A0A5EF00F0A7EF55
:1001480000F0A9EF00F083EC14F09DA8AEEF00F0EA
:10015800B0EF00F0B9EF00F09EA8B5EF00F0B7EFF0
:1001680000F0B9EF00F032EC14F09DAABEEF00F0F9
:10017800C0EF00F0C9EF00F09EAAC5EF00F0C7EF8E
:1001880000F0C9EF00F019EC14F013C0F4FF12C02E
:10019800F3FF11C0DAFF10C0D9FF0FC0FBFF0EC07C
:0A01A800FAFF4C92110044EF13F02F
:10100000003738392F3435362A3132332D23303DED
:051010002B2569000022
:10101600000E01011A6F000E1B6F000E1C6F000EF2
:101026001D6F30EF0AF0AC98AC94B896FDC0D9FFAE
:10103600FEC0DAFFDECF14F0DECF15F0DECF16F0FD
:10104600DECF17F0000EABEC0EF014C026F015C084
:1010560027F016C028F017C029F0000E226E240EC5
:10106600236EF40E246E4A0E256EDDEC0CF022C0C3
:101076001EF123C01FF124C020F125C021F1000E6E
:10108600266E000E276E800E286E420E296E1EC139
:1010960022F01FC123F020C124F021C125F0DDEC90
:1010A6000CF022C02EF023C02FF024C030F025C053
:1010B60031F0000E326E000E336E800E346EBF0EAF
:1010C600356E7CEC0AF02EC01AF12FC01BF130C031
:1010D6001CF131C01DF15CEF0AF0AC98AC94B886F7
:1010E600FDC0D9FFFEC0DAFFDECF14F0DECF15F06B
:1010F600DECF16F0DECF17F0000EABEC0EF014C00C
:1011060026F015C027F016C028F017C029F0000EEB
:10111600226E240E236EF40E246E4A0E256EDDEC2E
:101126000CF022C01EF123C01FF124C020F125C0FF
:1011360021F1000E266E000E276E800E286E410EDF
:10114600296E1EC122F01FC123F020C124F021C147
:1011560025F0DDEC0CF022C02EF023C02FF024C0C9
:1011660030F025C031F0000E326E000E336E800E68
:10117600346EBF0E356E7CEC0AF02EC01AF12FC00D
:101186001BF130C01CF131C01DF15CEF0AF0AC98C8
:10119600AC84B896FDC0D9FFFEC0DAFFDECF14F0EE
:1011A600DECF15F0DECF16F0DECF17F0000EABEC7B
:1011B6000EF014C026F015C027F016C028F017C090
:1011C60029F0000E226E240E236EF40E246E4A0EB3
:1011D600256EDDEC0CF022C01EF123C01FF124C0E9
:1011E60020F125C021F1000E266E000E276E800E1E
:1011F600286E410E296E1EC122F01FC123F020C1A8
:1012060024F021C125F0DDEC0CF022C02EF023C025
:101216002FF024C030F025C031F0000E326E000EE3
:10122600336E800E346EBF0E356E7CEC0AF02EC027
:101236001AF12FC01BF130C01CF131C01DF15CEF5B
:101246000AF0AC98AC84B886FDC0D9FFFEC0DAFFC0
:10125600DECF14F0DECF15F0DECF16F0DECF17F0BE
:10126600000EABEC0EF014C026F015C027F016C029
:1012760028F017C029F0000E226E240E236EF40EFD
:10128600246E4A0E256EDDEC0CF022C01EF123C042
:101296001FF124C020F125C021F1000E266E000E9C
:1012A600276E800E286E400E296E1EC122F01FC1C9
:1012B60023F020C124F021C125F0DDEC0CF022C082
:1012C6002EF023C02FF024C030F025C031F0000EE0
:1012D600326E000E336E800E346EBF0E356E7CECB1
:1012E6000AF02EC01AF12FC01BF130C01CF131C01C
:1012F6001DF15CEF0AF0AC88B896FDC0D9FFFEC0C0
:10130600DAFFDECF14F0DECF15F0DECF16F0DECF3B
:1013160017F0000EABEC0EF014C026F015C027F047
:1013260016C028F017C029F0000E226E240E236E78
:10133600F40E246E4A0E256EDDEC0CF022C01EF172
:1013460023C01FF124C020F125C021F1000E266E16
:10135600000E276E800E286E400E296E1EC122F0EA
:101366001FC123F020C124F021C125F0DDEC0CF0D3
:1013760022C02EF023C02FF024C030F025C031F05B
:10138600000E326E000E336E800E346EBF0E356E5A
:101396007CEC0AF02EC01AF12FC01BF130C01CF1F4
:1013A60031C01DF15CEF0AF0AC88B886FDC0D9FFEC
:1013B600FEC0DAFFDECF14F0DECF15F0DECF16F07A
:1013C600DECF17F0000EABEC0EF014C026F015C001
:1013D60027F016C028F017C029F0000E226E240E42
:1013E600236EF40E246E4A0E256EDDEC0CF022C040
:1013F6001EF123C01FF124C020F125C021F1000EEB
:10140600266E000E276E800E286E400E296E1EC1B7
:1014160022F01FC123F020C124F021C125F0DDEC0C
:101426000CF022C02EF023C02FF024C030F025C0CF
:1014360031F0000E326E000E336E800E346EBF0E2B
:10144600356E7CEC0AF02EC01AF12FC01BF130C0AD
:101456001CF131C01DF15CEF0AF0000120EE04F032
:10146600FD51D926FE51DA22DF50366E376A3750E3
:10147600000AD8B441EF0AF05CEF0AF03650000AD1
:10148600D8B416EF08F0010AD8B4CAEF08F0030A78
:10149600D8B470EF08F0010AD8B424EF09F0070AAF
:1014A600D8B47EEF09F0010AD8B4D7EF09F05CEFA3
:1014B6000AF01AC114F01BC115F01CC116F01DC1AB
:1014C60017F0DBEC10F01450AF6E1AC114F01BC10C
:1014D60015F01CC116F01DC117F0DBEC10F015C09D
:1014E60014F016C015F017C016F0176A1450B06E37
:1014F60012003150800B0101166F31503124186FE4
:1015060030AE88EF0AF08AEF0AF08BEF0AF0188106
:101516001851D8B491EF0AF093EF0AF0A8EF0AF049
:101526001829D8A499EF0AF09BEF0AF0A3EF0AF066
:10153600000E2E6E000E2F6E000E306E000E316EF7
:10154600308E000E316EB0EF0AF0000E2E6E000ED9
:101556002F6E000E306E000E316E3550800B176FF9
:1015660016511719D8B4BAEF0AF0BCEF0AF0BDEF5E
:101576000AF0168D35503524176F34AEC5EF0AF0D4
:10158600C7EF0AF0C8EF0AF017811751D8B4CEEFAB
:101596000AF0D0EF0AF0E5EF0AF01729D8A4D6EF43
:1015A6000AF0D8EF0AF0E0EF0AF0000E326E000EF5
:1015B600336E000E346E000E356E348E000E356EB0
:1015C600EDEF0AF0000E326E000E336E000E346E32
:1015D600000E356E1851175DD8B0F4EF0AF0F6EF2D
:1015E6000AF01DEF0BF016ADFBEF0AF0FDEF0AF067
:1015F600FFEF0AF0800E161B18C119F117C118F17A
:1016060019C117F12EC019F132C02EF019C132F0EE
:101616002FC019F133C02FF019C133F030C019F1C2
:1016260034C030F019C134F031C019F135C031F091
:1016360019C135F0000E196F185117C112F1136B4D
:10164600125F000E135B13BF32EF0BF0135109E16B
:101656001A0E125DD8A032EF0BF034EF0BF06BEFE1
:101666000BF02E502F1030103110D8A43DEF0BF098
:1016760040EF0BF0010E41EF0BF0000E196F000E5C
:101686002E6E000E2F6E000E306E000E316E17C1DC
:1016960018F174EF0BF019A153EF0BF055EF0BF0A7
:1016A6005BEF0BF0D89019310109196F5DEF0BF064
:1016B600D89019332EA062EF0BF064EF0BF065EFB4
:1016C6000BF0198F3134313230322F322E32182B43
:1016D6001751185DD8A072EF0BF074EF0BF04EEFB8
:1016E6000BF016BD79EF0BF07BEF0BF0BBEF0BF0B9
:1016F6001851D8A481EF0BF083EF0BF08DEF0BF0B0
:10170600000E2E6E000E2F6E000E306E000E316E25
:10171600DCEF0CF032502E2633502F22345030227C
:101726003550312231A09AEF0BF09CEF0BF048EFC9
:101736000CF019A1A1EF0BF0A3EF0BF0A9EF0BF042
:10174600D89019310109196FABEF0BF0D890193306
:101756002EA0B0EF0BF0B2EF0BF0B3EF0BF0198F3A
:101766003134313230322F322E32182B48EF0CF012
:1017760032502E5C33502F58345030583150800A36
:10178600126F3550800A1259D8B0CCEF0BF0CEEF5D
:101796000BF0F9EF0BF02E50325C126F2F503358CE
:1017A600136F30503458146F31503558156FFF0E83
:1017B60012252E6EFF0E13212F6EFF0E1421306E92
:1017C600FF0E1521316E800E161B196D1951D8A406
:1017D600EFEF0BF0F1EF0BF001EF0CF0010E2E2600
:1017E600000E2F223022312201EF0CF032502E5EF5
:1017F60033502F5A3450305A3550315A2E502F10FC
:1018060030103110D8A40AEF0CF00CEF0CF041EFB9
:101816000CF01951D8A412EF0CF014EF0CF041EFB4
:101826000CF0000E2E6E000E2F6E000E306E000EA7
:10183600316EDCEF0CF0D8902E362F36303631363E
:1018460019AF28EF0CF02AEF0CF02BEF0CF02E80DE
:1018560019A130EF0CF032EF0CF036EF0CF0D88017
:10186600193738EF0CF0D89019371851D8B43EEF25
:101876000CF040EF0CF041EF0CF0180730AE46EFDD
:101886000CF048EF0CF01EEF0CF0000E176F19AFBE
:101896004FEF0CF051EF0CF069EF0CF019C112F19B
:1018A6007F0E1217D8B45AEF0CF05CEF0CF060EF15
:1018B6000CF0010E176F69EF0CF02EA065EF0CF01F
:1018C60067EF0CF069EF0CF05CEF0CF01751D8B431
:1018D6006FEF0CF071EF0CF09CEF0CF0010E2E2662
:1018E600000E2F223022312231A07CEF0CF07EEF49
:1018F6000CF09CEF0CF02EC012F12FC013F130C08B
:1019060014F131C015F11535153314331333123371
:1019160012C12EF013C12FF014C130F015C131F0F1
:101926001829D8B499EF0CF09BEF0CF09CEF0CF053
:10193600182B1829D8B4A2EF0CF0A4EF0CF0ACEFDA
:101946000CF01851D8A4AAEF0CF0ACEF0CF0BEEFD7
:101956000CF0000E2E6E000E2F6E000E306E000E76
:10196600316E1851D8A4BAEF0CF0BCEF0CF0BEEFF4
:101976000CF0000E166F18A1C3EF0CF0C5EF0CF0BB
:10198600C8EF0CF0308EC9EF0CF0309ED8901831AD
:10199600316E16AFD1EF0CF0D3EF0CF0D4EF0CF0A4
:1019A600318E2EC02EF02FC02FF030C030F031C057
:1019B60031F012002550800B0001F46F25502524CC
:1019C600FB6F24AEE9EF0CF0EBEF0CF0ECEF0CF054
:1019D600FB81FB51D8B4F2EF0CF0F4EF0CF009EFF9
:1019E6000DF0FB29D8A4FAEF0CF0FCEF0CF004EF95
:1019F6000DF0000E226E000E236E000E246E000EF9
:101A0600256E248E000E256E11EF0DF0000E226E4F
:101A1600000E236E000E246E000E256E2950800BDC
:101A2600F41B29502924FC6F28AE1CEF0DF01EEF85
:101A36000DF01FEF0DF0FC81FC51D8B425EF0DF031
:101A460027EF0DF03CEF0DF0FC29D8A42DEF0DF09B
:101A56002FEF0DF037EF0DF0000E266E000E276EFD
:101A6600000E286E000E296E288E000E296E44EF99
:101A76000DF0000E266E000E276E000E286E000E6C
:101A8600296E2650271028102910D8A44DEF0DF0E6
:101A96004FEF0DF067EF0DF0000E226E000E236E75
:101AA600000E246E000E256E800E24127F0E251267
:101AB600F451251222C022F023C023F024C024F0C2
:101AC60025C025F0AAEF0EF0FB51D8A46DEF0DF05E
:101AD6006FEF0DF079EF0DF0000E226E000E236E03
:101AE600000E246E000E256EAAEF0EF0FC51FBC010
:101AF6002AF02B6A2A5E000E2B5A7F0E2A24F56FD7
:101B0600000E2B20F66F22C0F0F023C0F1F024C0A7
:101B1600F2F025C0F3F0000E226E000E236E000ECA
:101B2600246E000E256E000EF76F000EF86F000E85
:101B3600F96F000EFA6F000EFC6FDAEF0DF0FC5134
:101B4600D8B4A8EF0DF0AAEF0DF0C1EF0DF0D890C4
:101B5600F037F137F237F337D8902236233624366A
:101B66002536FAAFB9EF0DF0BBEF0DF0BCEF0DF077
:101B76002280D890F737F837F937FA372650F05DD4
:101B86002750F1592850F2592950F359D8A0CEEFD1
:101B96000DF0D0EF0DF0D9EF0DF0FA8D2650F05F75
:101BA6002750F15B2850F25B2950F35BFC2B190E92
:101BB600FC65E0EF0DF0E2EF0DF0A2EF0DF0F05155
:101BC600F111F211F311D8B4EBEF0DF0EDEF0DF0CA
:101BD60005EF0EF0F78105EF0EF0D890223623368A
:101BE60024362536FAAFFAEF0DF0FCEF0DF0FDEFD7
:101BF6000DF02280D890F737F837F937FA37F5071E
:101C0600D8A0F60724AE0AEF0EF00CEF0EF0F0EFB8
:101C16000DF0000EFC6FFAAF13EF0EF015EF0EF09D
:101C260039EF0EF0FF0EF7152A6EFF0EF8152B6E24
:101C3600FF0EF9152C6E7F0EFA152D6E2A502B10FD
:101C46002C102D10D8B42AEF0EF02CEF0EF030EF3A
:101C56000EF0010EFC6F39EF0EF022A035EF0EF0FC
:101C660037EF0EF039EF0EF02CEF0EF0FC51D8B432
:101C76003FEF0EF041EF0EF065EF0EF0010E22265B
:101C8600000E23222422252225A04CEF0EF04EEF33
:101C96000EF065EF0EF022C02AF023C02BF024C010
:101CA6002CF025C02DF02D342D322C322B322A3239
:101CB6002AC022F02BC023F02CC024F02DC025F022
:101CC600F54BF62BF6BF70EF0EF0F65108E1F5294D
:101CD600D8A070EF0EF072EF0EF07DEF0EF0000E52
:101CE600F66FF569000E226E000E236E000E246E4E
:101CF600000E256EF6BF8AEF0EF0F65106E1F505E9
:101D0600D8B088EF0EF08AEF0EF098EF0EF0000EC6
:101D1600F66F000EF56F000E226E000E236E000E9B
:101D2600246E000E256E000EF46FF5C0FBF0FBA1CD
:101D36009FEF0EF0A1EF0EF0A4EF0EF0248EA5EFAC
:101D46000EF0249ED890FB31256E5BEF0DF012004D
:101D56001C6E1C50D8B4B2EF0EF0B4EF0EF0D6EFF6
:101D66000EF017BEBBEF0EF0B9EF0EF0D6EF0EF089
:101D760014C018F015C019F016C01AF017C01BF0E1
:101D8600181E191E1A1E1B1E182A000E19221A22A8
:101D96001B2218C01EF019C01FF01AC020F01BC06D
:101DA60021F0DEEF0EF014C01EF015C01FF016C0B5
:101DB60020F017C021F01450151016101710D8A4D3
:101DC600E7EF0EF0E9EF0EF0F3EF0EF0000E146EF3
:101DD600000E156E000E166E000E176E84EF0FF0D5
:101DE600960E1D6EFDEF0EF01D2AD8902132203280
:101DF6001F321E32000E1E14186E000E1F14196EAE
:101E0600000E20141A6EFE0E21141B6E18501910A7
:101E16001A101B10D8A412EF0FF014EF0FF0F7EF03
:101E26000EF022EF0FF01D2A010E1E26000E1F22B5
:101E360020222122D890213220321F321E32000E5B
:101E46001E14186E000E1F14196E000E20141A6E42
:101E5600FF0E21141B6E185019101A101B10D8A44F
:101E660037EF0FF039EF0FF016EF0FF041EF0FF0ED
:101E76001D06D8901E361F362036213620BE46EF68
:101E86000FF048EF0FF050EF0FF0020E1D604EEF0F
:101E96000FF050EF0FF03BEF0FF01DB055EF0FF0C6
:101EA60057EF0FF058EF0FF0209ED8901D321DC04F
:101EB60018F0196A1A6A1B6A18C01BF01A6A196A9E
:101EC600186A18501E1219501F121A5020121B5051
:101ED60021121C50D8B472EF0FF074EF0FF07CEFA4
:101EE6000FF017BE7BEF0FF079EF0FF07CEF0FF0DE
:101EF600218E1EC014F01FC015F020C016F021C0A0
:101F060017F01200010E1C6E14501510D8B48EEF87
:101F16000FF090EF0FF0B0EF0FF014C0D9FF15C01F
:101F2600DAFFDF30E832E832070B166E080E16606D
:101F36009FEF0FF0A1EF0FF0B0EF0FF014C0D9FF35
:101F460015C0DAFFDF50070B166E040E1664AEEFEF
:101F56000FF0B0EF0FF013EF10F0000E1C6E34EF21
:101F660010F014C0D9FF15C0DAFFDF30E832E832CE
:101F7600070B166E010E176E162AC4EF0FF0D890D7
:101F86001736162EC2EF0FF01750FF0A186E14C040
:101F9600D9FF15C0DAFFDF50070B196E1950020D75
:101FA600600EF324D96E000EF420DA6EDECF1AF03E
:101FB600DDCF1BF01AC0D9FF1BC0DAFF1850DF16A1
:101FC60034EF10F014C0D9FF15C0DAFFDF30E83265
:101FD600E832070B166E010E176E162AF5EF0FF094
:101FE600D8901736162EF3EF0FF014C0D9FF15C090
:101FF600DAFFDF50070B186E1850020D600EF3243F
:10200600D96E000EF420DA6EDECF19F0DDCF1AF0AD
:1020160019C0D9FF1AC0DAFF1750DF1234EF10F0DB
:1020260014C0D9FF15C0DAFFDFBC1CEF10F01FEF9C
:1020360010F0010E20EF10F0000E166E176A175002
:10204600000AD8B429EF10F0B0EF0FF01650000ACE
:10205600D8B4B4EF0FF0010AD8B4E5EF0FF0B0EF43
:102066000FF01C501200010E1D6E14501510D8B43E
:102076003FEF10F041EF10F061EF10F014C0D9FF00
:1020860015C0DAFFDF30E832E832070B176E080EAC
:10209600176050EF10F052EF10F061EF10F014C01F
:1020A600D9FF15C0DAFFDF50070B176E040E176451
:1020B6005FEF10F061EF10F0C4EF10F0000E1D6E30
:1020C600D9EF10F014C0D9FF15C0DAFFDF30E832BF
:1020D600E832070B176E010E186E172A75EF10F00F
:1020E600D8901836172E73EF10F01850FF0A196E95
:1020F60014C0D9FF15C0DAFFDF50070B1A6E1A504D
:10210600020D6A0EF324D96E000EF420DA6EDECFCD
:102116001BF0DDCF1CF01BC0D9FF1CC0DAFF195025
:10212600DF16D9EF10F014C0D9FF15C0DAFFDF3083
:10213600E832E832070B176E010E186E172AA6EF63
:1021460010F0D8901836172EA4EF10F014C0D9FF4F
:1021560015C0DAFFDF50070B196E1950020D6A0E13
:10216600F324D96E000EF420DA6EDECF1AF0DDCF3E
:102176001BF01AC0D9FF1BC0DAFF1850DF12D9EFC7
:1021860010F01650176E186A1850000AD8B4CEEF21
:1021960010F061EF10F01750000AD8B465EF10F098
:1021A600010AD8B496EF10F061EF10F01D5012003E
:1021B600163417341D6E1D50D8A4E4EF10F0E6EF68
:1021C60010F0F0EF10F0000E146E000E156E000EFB
:1021D600166E000E176E5DEF11F014C018F015C0E4
:1021E60019F016C01AF017C01BF0200E00EF11F000
:1021F600D8901B321A3219321832E82EFBEF10F043
:1022060018501C6E168EFF0E1416FF0E1516FF0EB6
:102216001616000E1716960E1D5E1DBE17EF11F050
:1022260015EF11F02DEF11F01D50800A970FD8B061
:102236001FEF11F021EF11F023EF11F0E6EF10F090
:10224600D89017321632153214321D3E23EF11F094
:1022560045EF11F01F0E1D6433EF11F035EF11F04D
:102266003DEF11F0E6EF10F0D8901436153616361D
:1022760017361D061D50D8A443EF11F045EF11F097
:1022860037EF11F01C50D8B44BEF11F04DEF11F0B1
:1022960055EF11F0171E161E151E146C000E152292
:1022A6001622172214C014F015C015F016C016F029
:1022B60017C017F0120020EE06F01450D92615505C
:1022C600DA22DFA069EF11F06BEF11F0CBEF11F01E
:1022D600AB8820EE06F01450D9261550DA22DFA27C
:1022E60077EF11F079EF11F09DEF11F09D8A20EE56
:1022F6000BF01450D9261550DA22DECFCBF0DDCF05
:10230600CCF020EE0EF01450D9261550DA22DECF8E
:10231600C9F0DDCFCAF020EE10F01450D9261550C2
:10232600DA22DECFC7F0DDCFC8F0F28EF28C9D8ABE
:10233600ABEF11F020EE06F01450D9261550DA2234
:10234600DFB2A8EF11F0AAEF11F0ABEF11F09D9AF2
:1023560020EE06F01450D9261550DA22DFA4B6EF87
:1023660011F0B8EF11F0BBEF11F0AB8CCBEF11F021
:1023760020EE06F01450D9261550DA22DFB4C6EF47
:1023860011F0C8EF11F0CBEF11F0AB9CCBEF11F0D1
:102396001200010E086E01500210D8B4D5EF11F0EC
:1023A600D7EF11F0F7EF11F001C0D9FF02C0DAFF45
:1023B600DF30E832E832070B036E080E0360E6EF03
:1023C60011F0E8EF11F0F7EF11F001C0D9FF02C0EC
:1023D600DAFFDF50070B036E040E0364F5EF11F00E
:1023E600F7EF11F0FBEF11F0000E086E27EF12F079
:1023F60001C0D9FF02C0DAFFDF30E832E832070B4E
:10240600036E010E046E032A0BEF12F0D890043609
:10241600032E09EF12F001C0D9FF02C0DAFFDF5028
:10242600070B056E0550020D6A0EF324D96E000ED9
:10243600F420DA6EDECF06F0DDCF07F006C0D9FF56
:1024460007C0DAFF0450DF1A0850120020EE05F02C
:102456001450D9261550DA22DFA034EF12F036EFE9
:1024660012F082EF12F0AC8A20EE05F01450D92655
:102476001550DA22DFA242EF12F044EF12F054EFC9
:1024860012F09D8820EE08F01450D9261550DA2255
:10249600DECFCDF0DDCFCEF0F28EF28C9D8862EFEE
:1024A60012F020EE05F01450D9261550DA22DFB2CC
:1024B6005FEF12F061EF12F062EF12F09D9820EEDE
:1024C60005F01450D9261550DA22DFA46DEF12F06C
:1024D6006FEF12F072EF12F0AC8C82EF12F020EE7A
:1024E60005F01450D9261550DA22DFB47DEF12F02C
:1024F6007FEF12F082EF12F0AC9C82EF12F0120026
:102506001E501F10D8B48AEF12F08CEF12F0ACEF09
:1025160012F01EC0D9FF1FC0DAFFDF30E832E83202
:10252600070B206E080E20609BEF12F09DEF12F055
:10253600ACEF12F01EC0D9FF1FC0DAFFDF50070B49
:10254600206E040E2064AAEF12F0ACEF12F0B0EF8A
:1025560012F0000E216EC6EF12F01EC014F01FC05E
:1025660015F085EC0FF0216E1EC014F01FC015F09B
:102576001EC0D9FF1FC0DAFF000EDFBE010E166EA9
:1025860036EC10F0216E2150120040C026F022C019
:10259600D9FF23C0DAFFDF500F0B246E2650241814
:1025A600F80B2418266E22C0D9FF23C0DAFFDF38C5
:1025B600070B246E24462446244626502418C70BAF
:1025C6002418266E269C22C0D9FF23C0DAFFDFAE70
:1025D60002D0268E01D0269E22502310D8A4F6EFD4
:1025E60012F0F8EF12F0FCEF12F0000E256E04EF79
:1025F60013F0260E1E6E000E1F6E83EC12F0010EF7
:10260600256E255012003DC00DF009C0D9FF0AC045
:10261600DAFFDF500F0B0B6E0D500B18F80B0B1873
:102626000D6E09C0D9FF0AC0DAFFDF38070B0B6E43
:102636000B460B460B460D500B18C70B0B180D6EB1
:102646000D9C09C0D9FF0AC0DAFFDFAE02D00D8E9D
:1026560001D00D9E09500A10D8A434EF13F036EFBE
:1026660013F03AEF13F0000E0C6E42EF13F00D0E5E
:10267600016E000E026ECCEC11F0010E0C6E0C50C9
:102686001200B20EF66E280EF76E000EF86E01EE10
:1026960000F010EE12F00900F5CFEEFFE550E15024
:1026A600FAE15C0EF66E270EF76E000EF86E00EE7F
:1026B60060F010EE52F00900F5CFEEFFE550E15064
:1026C600FAE1120EF66E290EF76E000EF86E09008C
:1026D600F5CF4AF00900F5CF4BF000EEB2F03E0E12
:1026E600EE6AE806FDE100EE39F0110EEE6AE80644
:1026F600FDE14C904C92000177EF14F0490E016E0B
:10270600000E026E4AEC14F00001FF6F310E4918FC
:10271600D8A490EF13F092EF13F09CEF13F04B0E4A
:10272600096E000E0A6E06EC13F00001FF6FADEFA6
:1027360013F0320E4918D8A4A3EF13F0A5EF13F047
:10274600ADEF13F04A0E096E000E0A6E06EC13F09A
:102756000001FF6F1200920F930F940F950F960FC3
:10276600890F8A0F8B0F8C0F8D0F800F810F820FB1
:10277600830F840F323A030B131B232B333B020ABE
:10278600121A626A727A000810182028131B030BAB
:1027960072625242322280250000030003010000CB
:1027A6000002270000000000010122512311D8A4D5
:1027B600DFEF13F0E1EF13F0E5EF13F0000E386EE4
:1027C600FDEF13F0AB9E948C948E22C1FDF023C1D5
:1027D600FEF00BEC08F022C114F023C115F029EC31
:1027E60012F022C114F023C115F05EEC11F0AB8E8D
:1027F600010E386E38501200A00E0101226F000E35
:10280600236FD7EC13F00001FF6F4B0E226E000E04
:10281600236EC8EC12F00001FF6F4A0E226E000E06
:10282600236EC8EC12F00001FF6F12000001CB51BD
:10283600CC11D8B421EF14F023EF14F031EF14F0DB
:1028460002D82FEF14F00500FA6ECB51FD6ECC5175
:10285600FE6EFF6AFA50120031EF14F012009D98D6
:102866000001CD51CE11D8B43BEF14F03DEF14F07A
:1028760049EF14F002D849EF14F00500FA6ECD5175
:10288600FD6ECE51FE6EFF6AFA50120012009EAA2D
:102896004FEF14F051EF14F04AEF14F001C0D9FFD6
:1028A60002C0DAFFAECFDFFF010E12008025000066
:1028B6000303000114290000000000000000A1929B
:1028C6000001D051B36ECFC0B2FF12009E9000013E
:1028D600D651CF6ED5C0CEFF1200F2940001DA5168
:1028E600D76ED9C0D6FF1200FFEC13F079EF14F0C3
:1028F600D7EF00F0F0921200F0901200F292120060
:10290600A19012009E9412009E9C120012021200C8
:020000040020DA
:08000000FFFFFFFFFFFFFFFF00
:020000040030CA
:0E000000FF021F1EFF8981FF0FC00FE00F409F
:00000001FF
