:04000000BFEF00F05E
:100008005F82F2A80AEF00F00CEF00F015EF00F0A5
:10001800F2A211EF00F013EF00F015EF00F05DEC25
:100028000CF0F0A61AEF00F01CEF00F025EF00F03E
:10003800F0A021EF00F023EF00F025EF00F05BECDB
:100048000CF0F0A82AEF00F02CEF00F035EF00F0EC
:10005800F0A231EF00F033EF00F035EF00F059EC8B
:100068000CF09DAC3AEF00F03CEF00F045EF00F0EB
:100078009EAC41EF00F043EF00F045EF00F065EC77
:100088000CF0F2AA4AEF00F04CEF00F055EF00F048
:10009800F2A451EF00F053EF00F055EF00F04FECF1
:1000A8000CF09DA05AEF00F05CEF00F065EF00F057
:1000B8009EA061EF00F063EF00F065EF00F049ECFF
:1000C8000CF09DA26AEF00F06CEF00F06DEF00F00D
:1000D8009E50A0A272EF00F074EF00F07DEF00F0E8
:1000E800A1A279EF00F07BEF00F07DEF00F043EC88
:1000F8000CF09DA482EF00F084EF00F08DEF00F08B
:100108009EA489EF00F08BEF00F08DEF00F063EC18
:100118000CF0A0A092EF00F094EF00F09DEF00F03B
:10012800A1A099EF00F09BEF00F09DEF00F061ECCB
:100138000CF09DA8A2EF00F0A4EF00F0ADEF00F0E6
:100148009EA8A9EF00F0ABEF00F0ADEF00F05FEC78
:100158000CF09DAAB2EF00F0B4EF00F0BDEF00F094
:100168009EAAB9EF00F0BBEF00F0BDEF00F068EC1D
:0A0178000CF05F921100F5EF0BF0A0
:10100000003738392F3435362A3132332D23303DED
:051010002B2569000022
:101016001250800B1F6E12501224266E11AE16EF60
:1010260008F018EF08F019EF08F026802650D8B41B
:101036001FEF08F021EF08F036EF08F02628D8A4B5
:1010460027EF08F029EF08F031EF08F0000E0F6ED9
:10105600000E106E000E116E000E126E118E000E36
:10106600126E3EEF08F0000E0F6E000E106E000EB0
:10107600116E000E126E1650800B1F1A1650162493
:10108600276E15AE49EF08F04BEF08F04CEF08F06D
:1010960027802750D8B452EF08F054EF08F069EFD4
:1010A60008F02728D8A45AEF08F05CEF08F064EFA0
:1010B60008F0000E136E000E146E000E156E000E74
:1010C600166E158E000E166E71EF08F0000E136E7A
:1010D600000E146E000E156E000E166E13501410D0
:1010E60015101610D8A47AEF08F07CEF08F094EFEC
:1010F60008F0000E0F6E000E106E000E116E000E40
:10110600126E800E11127F0E12121F5012120FC095
:101116000FF010C010F011C011F012C012F0D7EF8E
:1011260009F02650D8A49AEF08F09CEF08F0A6EF35
:1011360008F0000E0F6E000E106E000E116E000EFF
:10114600126ED7EF09F0275026C017F0186A175EFF
:10115600000E185A7F0E1724206E000E1820216EDE
:101166000FC01BF010C01CF011C01DF012C01EF005
:10117600000E0F6E000E106E000E116E000E126E37
:10118600000E226E000E236E000E246E000E256EDB
:10119600000E276E07EF09F02750D8B4D5EF08F0F8
:1011A600D7EF08F0EEEF08F0D8901B361C361D3648
:1011B6001E36D8900F3610361136123625AEE6EFAB
:1011C60008F0E8EF08F0E9EF08F00F80D890223633
:1011D60023362436253613501B5C14501C581550E4
:1011E6001D5816501E58D8A0FBEF08F0FDEF08F06A
:1011F60006EF09F0258C13501B5E14501C5A15502F
:101206001D5A16501E5A272A190E27640DEF09F08B
:101216000FEF09F0CFEF08F01B501C101D101E1029
:10122600D8B418EF09F01AEF09F032EF09F022806E
:1012360032EF09F0D8900F3610361136123625AE39
:1012460027EF09F029EF09F02AEF09F00F80D8906F
:1012560022362336243625362006D8A0210611AE9E
:1012660037EF09F039EF09F01DEF09F0000E276E90
:1012760025AE40EF09F042EF09F066EF09F0FF0EE8
:101286002214176EFF0E2314186EFF0E2414196E07
:101296007F0E25141A6E1750181019101A10D8B48C
:1012A60057EF09F059EF09F05DEF09F0010E276ECF
:1012B60066EF09F00FA062EF09F064EF09F066EF40
:1012C60009F059EF09F02750D8B46CEF09F06EEF2A
:1012D60009F092EF09F0010E0F26000E10221122DE
:1012E600122212A079EF09F07BEF09F092EF09F0D4
:1012F6000FC017F010C018F011C019F012C01AF084
:101306001A341A3219321832173217C00FF018C0B1
:1013160010F019C011F01AC012F0204A212A21BE7D
:101326009DEF09F0215008E12028D8A09DEF09F093
:101336009FEF09F0AAEF09F0000E216E2068000E5B
:101346000F6E000E106E000E116E000E126E21BE94
:10135600B7EF09F0215006E12004D8B0B5EF09F047
:10136600B7EF09F0C5EF09F0000E216E000E206EF2
:10137600000E0F6E000E106E000E116E000E126E35
:10138600000E1F6E20C026F026A0CCEF09F0CEEF8F
:1013960009F0D1EF09F0118ED2EF09F0119ED89025
:1013A6002630126E88EF08F01200096E0950D8B484
:1013B600DFEF09F0E1EF09F003EF0AF004BEE8EF12
:1013C60009F0E6EF09F003EF0AF001C005F002C0EC
:1013D60006F003C007F004C008F0051E061E071E2F
:1013E600081E052A000E06220722082205C00BF059
:1013F60006C00CF007C00DF008C00EF00BEF0AF0A7
:1014060001C00BF002C00CF003C00DF004C00EF0DA
:101416000150021003100410D8A414EF0AF016EFBE
:101426000AF020EF0AF0000E016E000E026E000EAA
:10143600036E000E046EB1EF0AF0960E0A6E2AEFE6
:101446000AF00A2AD8900E320D320C320B32000EF8
:101456000B14056E000E0C14066E000E0D14076EAE
:10146600FE0E0E14086E0550061007100810D8A4BC
:101476003FEF0AF041EF0AF024EF0AF04FEF0AF0CF
:101486000A2A010E0B26000E0C220D220E22D890DF
:101496000E320D320C320B32000E0B14056E000E9E
:1014A6000C14066E000E0D14076EFF0E0E14086E59
:1014B6000550061007100810D8A464EF0AF066EF6E
:1014C6000AF043EF0AF06EEF0AF00A06D8900B36E0
:1014D6000C360D360E360DBE73EF0AF075EF0AF0B8
:1014E6007DEF0AF0020E0A607BEF0AF07DEF0AF04C
:1014F60068EF0AF00AB082EF0AF084EF0AF085EF8F
:101506000AF00D9ED8900A320AC005F0066A076AEC
:10151600086A05C008F0076A066A056A05500B12D4
:1015260006500C1207500D1208500E120950D8B46E
:101536009FEF0AF0A1EF0AF0A9EF0AF004BEA8EFA8
:101546000AF0A6EF0AF0A9EF0AF00E8E0BC001F022
:101556000CC002F00DC003F00EC004F012002A34D5
:101566002B34316E3150D8A4BBEF0AF0BDEF0AF030
:10157600C7EF0AF0000E286E000E296E000E2A6EC6
:10158600000E2B6E34EF0BF028C02CF029C02DF086
:101596002AC02EF02BC02FF0200ED7EF0AF0D890DD
:1015A6002F322E322D322C32E82ED2EF0AF02C506A
:1015B600306E2A8EFF0E2816FF0E2916FF0E2A16EB
:1015C600000E2B16960E315E31BEEEEF0AF0ECEFF2
:1015D6000AF004EF0BF03150800A970FD8B0F6EFFF
:1015E6000AF0F8EF0AF0FAEF0AF0BDEF0AF0D89029
:1015F6002B322A3229322832313EFAEF0AF01CEF1A
:101606000BF01F0E31640AEF0BF00CEF0BF014EF2A
:101616000BF0BDEF0AF0D890283629362A362B363D
:1016260031063150D8A41AEF0BF01CEF0BF00EEF79
:101636000BF03050D8B422EF0BF024EF0BF02CEF68
:101646000BF02B1E2A1E291E286C000E29222A2288
:101656002B2228C028F029C029F02AC02AF02BC046
:101666002BF0120067EC0CF0000E936E000E816EEC
:10167600000E8A6E94949486CD98CD9ACD92AEEC57
:101686000BF028C034F029C035F02AC036F02BC044
:1016960037F0000E136E000E146EA00E156E400E7F
:1016A600166E34C00FF035C010F036C011F037C0DA
:1016B60012F00BEC08F00FC028F010C029F011C092
:1016C6002AF012C02BF0B2EC0AF028505E6E80EFC2
:1016D6000BF0010E8A6E9DEF0BF0030E8A6E9DEFE6
:1016E6000BF0070E8A6E9DEF0BF00F0E8A6E9DEFC4
:1016F6000BF0000E816E9DEF0BF05E50326E336A7A
:101706003350000AD8B48AEF0BF07CEF0BF032505E
:10171600010AD8B46CEF0BF0030AD8B470EF0BF0E3
:10172600010AD8B474EF0BF0070AD8B478EF0BF0BF
:101736007CEF0BF0020E336E040E326EBA0EE82EFC
:10174600FED7322EFCD7332EFAD700F000F042EF48
:101756000BF0BFEF00F0000ECF6E000ECE6E82844F
:10176600060EE82EFED700F000F0829482A6BEEFA9
:101776000BF0C0EF0BF0B9EF0BF0CD8082B6C6EFE1
:101786000BF0C8EF0BF0C1EF0BF0CD90CECF01F010
:10179600CFCF02F0036A046A000ED8EC09F001C04C
:1017A6000FF002C010F003C011F004C012F0AE0E2C
:1017B600136E470E146E6B0E156E420E166E0BEC04
:1017C60008F00FC02CF010C02DF011C02EF012C082
:1017D6002FF02CC028F02DC029F02EC02AF02FC0E3
:1017E6002BF012004C0EF66E180EF76E000EF86E09
:1017F60000EE60F010EE3AF00900F5CFEEFFE5508E
:10180600E150FAE1AA0EF66E180EF76E000EF86EAB
:1018160000EE56F010EE08F00900F5CFEEFFE550A9
:10182600E150FAE100EE9AF0310EEE6AE806FDE1CB
:1018360000EE38F01E0EEE6AE806FDE15F905F925C
:10184600000135EF0BF0920F930F940F950F960F43
:10185600890F8A0F8B0F8C0F8D0F800F810F820FD0
:10186600830F840F323A030B131B232B333B020ADD
:10187600121A626A727A000810182028131B030BCA
:10188600A1923950B36E38C0B2FF12009E903B5001
:10189600CF6E3AC0CEFF1200F2943D50D76E3CC0D8
:1018A600D6FF12007262524232221202F0921200E7
:1018B600F0901200F29212009D981200A190120070
:0C18C6009E9412009E9C12001200120062
:020000040020DA
:08000000FFFFFFFFFFFFFFFF00
:020000040030CA
:0E000000FF021F1EFF8981FF0FC00FE00F409F
:00000001FF
