:04000000C7EF00F056
:100008005D82FACF01F0FBCF02F0F2A80EEF00F00C
:1000180010EF00F019EF00F0F2A215EF00F017EF63
:1000280000F019EF00F00AEC12F0F0A61EEF00F055
:1000380020EF00F029EF00F0F0A025EF00F027EF07
:1000480000F029EF00F008EC12F0F0A82EEF00F015
:1000580030EF00F039EF00F0F0A235EF00F037EFA5
:1000680000F039EF00F006EC12F09DAC3EEF00F026
:1000780040EF00F049EF00F09EAC45EF00F047EF8D
:1000880000F049EF00F010EC12F0F2AA4EEF00F089
:1000980050EF00F059EF00F0F2A455EF00F057EFE1
:1000A80000F059EF00F0FDEC11F09DA05EEF00F0BC
:1000B80060EF00F069EF00F09EA065EF00F067EFD9
:1000C80000F069EF00F0F6EC11F09DA26EEF00F081
:1000D80070EF00F071EF00F09E50A0A276EF00F0F4
:1000E80078EF00F081EF00F0A1A27DEF00F07FEF44
:1000F80000F081EF00F0EFEC11F09DA486EF00F026
:1001080088EF00F091EF00F09EA48DEF00F08FEFE4
:1001180000F091EF00F00EEC12F0A0A096EF00F0C6
:1001280098EF00F0A1EF00F0A1A09DEF00F09FEF85
:1001380000F0A1EF00F00CEC12F09DA8A6EF00F083
:10014800A8EF00F0B1EF00F09EA8ADEF00F0AFEF20
:1001580000F0B1EF00F0C1EC11F09DAAB6EF00F08D
:10016800B8EF00F0C1EF00F09EAABDEF00F0BFEFBE
:1001780000F0C1EF00F013EC12F002C0FBFF01C069
:0A018800FAFF5D9211001EEF11F066
:10100000003738392F3435362A3132332D23303DED
:101010002B50625F3120507265737365640D005010
:10102000625F3220507265737365640D002569003C
:0110300000BF
:10103200000E3E6E000E3F6E000E406E000E416EC0
:101042003DEF0AF0AC98AC94B8963AC0D9FF3BC0D9
:10105200DAFFDECF03F0DECF04F0DECF05F0DECF25
:1010620006F0000EB5EC0EF003C015F004C016F049
:1010720005C017F006C018F0000E116E240E126E95
:10108200F40E136E4A0E146EE8EC0CF011C042F02E
:1010920012C043F013C044F014C045F0000E156EA8
:1010A200000E166E800E176E420E186E42C011F0C0
:1010B20043C012F044C013F045C014F0E8EC0CF049
:1010C20011C02AF012C02BF013C02CF014C02DF066
:1010D200000E2E6E000E2F6E800E306EBF0E316E21
:1010E20088EC0AF02AC03EF02BC03FF02CC040F042
:1010F2002DC041F068EF0AF0AC98AC94B8863AC0C3
:10110200D9FF3BC0DAFFDECF03F0DECF04F0DECF43
:1011120005F0DECF06F0000EB5EC0EF003C015F0C0
:1011220004C016F005C017F006C018F0000E116ECC
:10113200240E126EF40E136E4A0E146EE8EC0CF0CE
:1011420011C042F012C043F013C044F014C045F085
:10115200000E156E000E166E800E176E410E186E82
:1011620042C011F043C012F044C013F045C014F065
:10117200E8EC0CF011C02AF012C02BF013C02CF0D6
:1011820014C02DF0000E2E6E000E2F6E800E306EEB
:10119200BF0E316E88EC0AF02AC03EF02BC03FF041
:1011A2002CC040F02DC041F068EF0AF0AC98AC843E
:1011B200B8963AC0D9FF3BC0DAFFDECF03F0DECFEC
:1011C20004F0DECF05F0DECF06F0000EB5EC0EF037
:1011D20003C015F004C016F005C017F006C018F0E1
:1011E200000E116E240E126EF40E136E4A0E146E61
:1011F200E8EC0CF011C042F012C043F013C044F00E
:1012020014C045F0000E156E000E166E800E176E9D
:10121200410E186E42C011F043C012F044C013F0E8
:1012220045C014F0E8EC0CF011C02AF012C02BF00B
:1012320013C02CF014C02DF0000E2E6E000E2F6E77
:10124200800E306EBF0E316E88EC0AF02AC03EF07E
:101252002BC03FF02CC040F02DC041F068EF0AF0E7
:10126200AC98AC84B8863AC0D9FF3BC0DAFFDECF77
:1012720003F0DECF04F0DECF05F0DECF06F0000E85
:10128200B5EC0EF003C015F004C016F005C017F05F
:1012920006C018F0000E116E240E126EF40E136EBC
:1012A2004A0E146EE8EC0CF011C042F012C043F08A
:1012B20013C044F014C045F0000E156E000E166EF9
:1012C200800E176E400E186E42C011F043C012F02D
:1012D20044C013F045C014F0E8EC0CF011C02AF041
:1012E20012C02BF013C02CF014C02DF0000E2E6E85
:1012F200000E2F6E800E306EBF0E316E88EC0AF03B
:101302002AC03EF02BC03FF02CC040F02DC041F06F
:1013120068EF0AF0AC88B8963AC0D9FF3BC0DAFF52
:10132200DECF03F0DECF04F0DECF05F0DECF06F035
:10133200000EB5EC0EF003C015F004C016F005C0A7
:1013420017F006C018F0000E116E240E126EF40E85
:10135200136E4A0E146EE8EC0CF011C042F012C08B
:1013620043F013C044F014C045F0000E156E000E99
:10137200166E800E176E400E186E42C011F043C0FA
:1013820012F044C013F045C014F0E8EC0CF011C0A8
:101392002AF012C02BF013C02CF014C02DF0000E56
:1013A2002E6E000E2F6E800E306EBF0E316E88ECE8
:1013B2000AF02AC03EF02BC03FF02CC040F02DC0F6
:1013C20041F068EF0AF0AC88B8863AC0D9FF3BC05A
:1013D200DAFFDECF03F0DECF04F0DECF05F0DECFA2
:1013E20006F0000EB5EC0EF003C015F004C016F0C6
:1013F20005C017F006C018F0000E116E240E126E12
:10140200F40E136E4A0E146EE8EC0CF011C042F0AA
:1014120012C043F013C044F014C045F0000E156E24
:10142200000E166E800E176E400E186E42C011F03E
:1014320043C012F044C013F045C014F0E8EC0CF0C5
:1014420011C02AF012C02BF013C02CF014C02DF0E2
:10145200000E2E6E000E2F6E800E306EBF0E316E9D
:1014620088EC0AF02AC03EF02BC03FF02CC040F0BE
:101472002DC041F068EF0AF020EE04F03A50D92670
:101482003B50DA22DF503C6E3D6A3D50000AD8B430
:101492004DEF0AF068EF0AF03C50000AD8B423EF8F
:1014A20008F0010AD8B4D7EF08F0030AD8B47DEFE8
:1014B20008F0010AD8B431EF09F0070AD8B48BEF6B
:1014C20009F0010AD8B4E4EF09F068EF0AF03EC06F
:1014D20003F03FC004F040C005F041C006F08FECBD
:1014E2000FF00350AF6E3EC003F03FC004F040C0A7
:1014F20005F041C006F08FEC0FF004C003F005C008
:1015020004F006C005F0066A0350B06E12002D50BA
:10151200800B366E2D502D24386E2CAE93EF0AF0D0
:1015220095EF0AF096EF0AF038803850D8B49CEF65
:101532000AF09EEF0AF0B3EF0AF03828D8A4A4EF1D
:101542000AF0A6EF0AF0AEEF0AF0000E2A6E000EC5
:101552002B6E000E2C6E000E2D6E2C8E000E2D6E3C
:10156200BBEF0AF0000E2A6E000E2B6E000E2C6EE0
:10157200000E2D6E3150800B376E36503718D8B4AE
:10158200C5EF0AF0C7EF0AF0C8EF0AF0368C315007
:101592003124376E30AED0EF0AF0D2EF0AF0D3EF3B
:1015A2000AF037803750D8B4D9EF0AF0DBEF0AF0EF
:1015B200F0EF0AF03728D8A4E1EF0AF0E3EF0AF0DF
:1015C200EBEF0AF0000E2E6E000E2F6E000E306E44
:1015D200000E316E308E000E316EF8EF0AF0000E02
:1015E2002E6E000E2F6E000E306E000E316E3850D1
:1015F200375CD8B0FFEF0AF001EF0BF028EF0BF0E9
:1016020036AC06EF0BF008EF0BF00AEF0BF0800E92
:10161200361A38C039F037C038F039C037F02AC02E
:1016220039F02EC02AF039C02EF02BC039F02FC06D
:101632002BF039C02FF02CC039F030C02CF039C05B
:1016420030F02DC039F031C02DF039C031F0000E2C
:10165200396E385037C032F0336A325E000E335A78
:1016620033BE3DEF0BF0335009E11A0E325CD8A0C5
:101672003DEF0BF03FEF0BF076EF0BF02A502B1003
:101682002C102D10D8A448EF0BF04BEF0BF0010EED
:101692004CEF0BF0000E396E000E2A6E000E2B6E10
:1016A200000E2C6E000E2D6E37C038F07FEF0BF05F
:1016B20039A05EEF0BF060EF0BF066EF0BF0D89005
:1016C20039300109396E68EF0BF0D89039322AA00F
:1016D2006DEF0BF06FEF0BF070EF0BF0398E2D34D6
:1016E2002D322C322B322A32382A3750385CD8A08D
:1016F2007DEF0BF07FEF0BF059EF0BF036BC84EF70
:101702000BF086EF0BF0C6EF0BF03850D8A48CEF3D
:101712000BF08EEF0BF098EF0BF0000E2A6E000E1E
:101722002B6E000E2C6E000E2D6EE7EF0CF02E507D
:101732002A262F502B2230502C2231502D222DA020
:10174200A5EF0BF0A7EF0BF053EF0CF039A0ACEFC5
:101752000BF0AEEF0BF0B4EF0BF0D890393001097B
:10176200396EB6EF0BF0D89039322AA0BBEF0BF0EE
:10177200BDEF0BF0BEEF0BF0398E2D342D322C3233
:101782002B322A32382A53EF0CF02E502A5C2F507B
:101792002B5830502C582D50800A326E3150800A0E
:1017A2003258D8B0D7EF0BF0D9EF0BF004EF0CF0B2
:1017B2002A502E5C326E2B502F58336E2C503058DC
:1017C200346E2D503158356EFF0E32242A6EFF0EC4
:1017D20033202B6EFF0E34202C6EFF0E35202D6E23
:1017E200800E361A396C3950D8A4FAEF0BF0FCEFA0
:1017F2000BF00CEF0CF0010E2A26000E2B222C22ED
:101802002D220CEF0CF02E502A5E2F502B5A305006
:101812002C5A31502D5A2A502B102C102D10D8A48E
:1018220015EF0CF017EF0CF04CEF0CF03950D8A478
:101832001DEF0CF01FEF0CF04CEF0CF0000E2A6EB7
:10184200000E2B6E000E2C6E000E2D6EE7EF0CF0CC
:10185200D8902A362B362C362D3639AE33EF0CF093
:1018620035EF0CF036EF0CF02A8039A03BEF0CF08C
:101872003DEF0CF041EF0CF0D880393643EF0CF01D
:10188200D89039363850D8B449EF0CF04BEF0CF001
:101892004CEF0CF038062CAE51EF0CF053EF0CF07D
:1018A20029EF0CF0000E376E39AE5AEF0CF05CEFF8
:1018B2000CF074EF0CF039C032F07F0E3216D8B44F
:1018C20065EF0CF067EF0CF06BEF0CF0010E376E6A
:1018D20074EF0CF02AA070EF0CF072EF0CF074EFC2
:1018E2000CF067EF0CF03750D8B47AEF0CF07CEFC5
:1018F2000CF0A7EF0CF0010E2A26000E2B222C2250
:101902002D222DA087EF0CF089EF0CF0A7EF0CF041
:101912002AC032F02BC033F02CC034F02DC035F089
:101922003534353234323332323232C02AF033C0B7
:101932002BF034C02CF035C02DF03828D8B4A4EFE9
:101942000CF0A6EF0CF0A7EF0CF0382A3828D8B428
:10195200ADEF0CF0AFEF0CF0B7EF0CF03850D8A4AD
:10196200B5EF0CF0B7EF0CF0C9EF0CF0000E2A6ED9
:10197200000E2B6E000E2C6E000E2D6E3850D8A469
:10198200C5EF0CF0C7EF0CF0C9EF0CF0000E366E8D
:1019920038A0CEEF0CF0D0EF0CF0D3EF0CF02C8E81
:1019A200D4EF0CF02C9ED89038302D6E36AEDCEF92
:1019B2000CF0DEEF0CF0DFEF0CF02D8E2AC02AF0D7
:1019C2002BC02BF02CC02CF02DC02DF01200145087
:1019D200800B216E14501424286E13AEF3EF0CF01A
:1019E200F5EF0CF0F6EF0CF028802850D8B4FCEF9D
:1019F2000CF0FEEF0CF013EF0DF02828D8A404EF42
:101A02000DF006EF0DF00EEF0DF0000E116E000E50
:101A1200126E000E136E000E146E138E000E146EF4
:101A22001BEF0DF0000E116E000E126E000E136E03
:101A3200000E146E1850800B211A18501824296EAB
:101A420017AE26EF0DF028EF0DF029EF0DF02980EB
:101A52002950D8B42FEF0DF031EF0DF046EF0DF015
:101A62002928D8A437EF0DF039EF0DF041EF0DF032
:101A7200000E156E000E166E000E176E000E186E1A
:101A8200178E000E186E4EEF0DF0000E156E000E42
:101A9200166E000E176E000E186E155016101710E7
:101AA2001810D8A457EF0DF059EF0DF071EF0DF0AB
:101AB200000E116E000E126E000E136E000E146EEA
:101AC200800E13127F0E14122150141211C011F045
:101AD20012C012F013C013F014C014F0B4EF0EF0E1
:101AE2002850D8A477EF0DF079EF0DF083EF0DF0C9
:101AF200000E116E000E126E000E136E000E146EAA
:101B0200B4EF0EF0295028C019F01A6A195E000EBF
:101B12001A5A7F0E1924226E000E1A20236E11C04B
:101B22001DF012C01EF013C01FF014C020F0000EF2
:101B3200116E000E126E000E136E000E146E000E69
:101B4200246E000E256E000E266E000E276E000E0D
:101B5200296EE4EF0DF02950D8B4B2EF0DF0B4EFD6
:101B62000DF0CBEF0DF0D8901D361E361F36203605
:101B7200D890113612361336143627AEC3EF0DF055
:101B8200C5EF0DF0C6EF0DF01180D8902436253642
:101B92002636273615501D5C16501E5817501F58F2
:101BA20018502058D8A0D8EF0DF0DAEF0DF0E3EF7F
:101BB2000DF0278C15501D5E16501E5A17501F5AD5
:101BC2001850205A292A190E2964EAEF0DF0ECEF79
:101BD2000DF0ACEF0DF01D501E101F102010D8B4E8
:101BE200F5EF0DF0F7EF0DF00FEF0EF024800FEF91
:101BF2000EF0D890113612361336143627AE04EF93
:101C02000EF006EF0EF007EF0EF01180D89024369A
:101C12002536263627362206D8A0230613AE14EF21
:101C22000EF016EF0EF0FAEF0DF0000E296E27AE51
:101C32001DEF0EF01FEF0EF043EF0EF0FF0E241417
:101C4200196EFF0E25141A6EFF0E26141B6E7F0EE0
:101C520027141C6E19501A101B101C10D8B434EF24
:101C62000EF036EF0EF03AEF0EF0010E296E43EF52
:101C72000EF011A03FEF0EF041EF0EF043EF0EF029
:101C820036EF0EF02950D8B449EF0EF04BEF0EF0BC
:101C92006FEF0EF0010E1126000E122213221422F3
:101CA20014A056EF0EF058EF0EF06FEF0EF011C0C9
:101CB20019F012C01AF013C01BF014C01CF01C342F
:101CC2001C321B321A32193219C011F01AC012F02A
:101CD2001BC013F01CC014F0224A232A23BE7AEF41
:101CE2000EF0235008E12228D8A07AEF0EF07CEF04
:101CF2000EF087EF0EF0000E236E2268000E116EBA
:101D0200000E126E000E136E000E146E23BE94EFC0
:101D12000EF0235006E12204D8B092EF0EF094EFB9
:101D22000EF0A2EF0EF0000E236E000E226E000ED9
:101D3200116E000E126E000E136E000E146E000E67
:101D4200216E22C028F028A0A9EF0EF0ABEF0EF012
:101D5200AEEF0EF0138EAFEF0EF0139ED890283038
:101D6200146E65EF0DF012000B6E0B50D8B4BCEF81
:101D72000EF0BEEF0EF0E0EF0EF006BEC5EF0EF075
:101D8200C3EF0EF0E0EF0EF003C007F004C008F05E
:101D920005C009F006C00AF0071E081E091E0A1E29
:101DA200072A000E082209220A2207C00DF008C0E5
:101DB2000EF009C00FF00AC010F0E8EF0EF003C0F9
:101DC2000DF004C00EF005C00FF006C010F0035075
:101DD200041005100610D8A4F1EF0EF0F3EF0EF088
:101DE200FDEF0EF0000E036E000E046E000E056E87
:101DF200000E066E8EEF0FF0960E0C6E07EF0FF0D0
:101E02000C2AD89010320F320E320D32000E0D1401
:101E1200076E000E0E14086E000E0F14096EFE0EF1
:101E220010140A6E0750081009100A10D8A41CEFEB
:101E32000FF01EEF0FF001EF0FF02CEF0FF00C2A56
:101E4200010E0D26000E0E220F221022D890103203
:101E52000F320E320D32000E0D14076E000E0E14EC
:101E6200086E000E0F14096EFF0E10140A6E075052
:101E7200081009100A10D8A441EF0FF043EF0FF039
:101E820020EF0FF04BEF0FF00C06D8900D360E3608
:101E92000F3610360FBE50EF0FF052EF0FF05AEF21
:101EA2000FF0020E0C6058EF0FF05AEF0FF045EFF3
:101EB2000FF00CB05FEF0FF061EF0FF062EF0FF079
:101EC2000F9ED8900C320CC007F0086A096A0A6AA1
:101ED20007C00AF0096A086A076A07500D1208501B
:101EE2000E1209500F120A5010120B50D8B47CEF88
:101EF2000FF07EEF0FF086EF0FF006BE85EF0FF0CA
:101F020083EF0FF086EF0FF0108E0DC003F00EC0BE
:101F120004F00FC005F010C006F0120005340634BC
:101F22000C6E0C50D8A498EF0FF09AEF0FF0A4EFBC
:101F32000FF0000E036E000E046E000E056E000E12
:101F4200066E11EF10F003C007F004C008F005C0E0
:101F520009F006C00AF0200EB4EF0FF0D8900A3252
:101F6200093208320732E82EAFEF0FF007500B6E3E
:101F7200058EFF0E0316FF0E0416FF0E0516000E49
:101F82000616960E0C5E0CBECBEF0FF0C9EF0FF0EB
:101F9200E1EF0FF00C50800A970FD8B0D3EF0FF09B
:101FA200D5EF0FF0D7EF0FF09AEF0FF0D89006327F
:101FB2000532043203320C3ED7EF0FF0F9EF0FF087
:101FC2001F0E0C64E7EF0FF0E9EF0FF0F1EF0FF0E7
:101FD2009AEF0FF0D89003360436053606360C0613
:101FE2000C50D8A4F7EF0FF0F9EF0FF0EBEF0FF072
:101FF2000B50D8B4FFEF0FF001EF10F009EF10F023
:10200200061E051E041E036C000E04220522062273
:1020120003C003F004C004F005C005F006C006F0DA
:10202200120020EE06F00350D9260450DA22DFA077
:102032001DEF10F01FEF10F07FEF10F0AB8820EED5
:1020420006F00350D9260450DA22DFA22BEF10F05B
:102052002DEF10F051EF10F09D8A20EE0BF003509F
:10206200D9260450DA22DECFC9F0DDCFCAF020EE45
:102072000EF00350D9260450DA22DECFC7F0DDCFAE
:10208200C8F020EE10F00350D9260450DA22DECF39
:10209200C5F0DDCFC6F0F28EF28C9D8A5FEF10F0B4
:1020A20020EE06F00350D9260450DA22DFB25CEFAC
:1020B20010F05EEF10F05FEF10F09D9A20EE06F048
:1020C2000350D9260450DA22DFA46AEF10F06CEF35
:1020D20010F06FEF10F0AB8C7FEF10F020EE06F0F7
:1020E2000350D9260450DA22DFB47AEF10F07CEFE5
:1020F20010F07FEF10F0AB9C7FEF10F0120020EE9B
:1021020005F00350D9260450DA22DFA08BEF10F03D
:102112008DEF10F0D9EF10F0AC8A20EE05F00350ED
:10212200D9260450DA22DFA299EF10F09BEF10F0CB
:10213200ABEF10F09D8820EE08F00350D926045032
:10214200DA22DECFCBF0DDCFCCF0F28EF28C9D889E
:10215200B9EF10F020EE05F00350D9260450DA2230
:10216200DFB2B6EF10F0B8EF10F0B9EF10F09D98B3
:1021720020EE05F00350D9260450DA22DFA4C4EF82
:1021820010F0C6EF10F0C9EF10F0AC8CD9EF10F0E0
:1021920020EE05F00350D9260450DA22DFB4D4EF42
:1021A20010F0D6EF10F0D9EF10F0AC9CD9EF10F090
:1021B2001200E6EC11F081A8E1EF10F0E3EF10F06D
:1021C200FBEF10F0030E0001EF6F080EEE6F770EBB
:1021D200E82EFED7EE2FFCD7EF2FFAD71F0E046E94
:1021E200100E056E000E076E0D0E066E9EEC11F0BF
:1021F200DCEF10F081A000EF11F002EF11F01AEF06
:1022020011F0030E0001EF6F080EEE6F770EE82E4D
:10221200FED7EE2FFCD7EF2FFAD7110E046E100E59
:10222200056E000E076E0D0E066E9EEC11F0DCEFD1
:1022320010F0DCEF10F0C7EF00F09E0EF66E220EEB
:10224200F76E000EF86E00EE60F010EE50F009002E
:10225200F5CFEEFFE550E150FAE1080EF66E240EDE
:10226200F76E000EF86E00EE59F010EE04F0090061
:10227200F5CFEEFFE550E150FAE100EEB0F03E0E90
:10228200EE6AE806FDE100EE49F0100EEE6AE8069D
:10229200FDE15D905D920001DAEF10F0920F930F75
:1022A200940F950F960F890F8A0F8B0F8C0F8D0F3E
:1022B200800F810F820F830F840F323A030B131B9F
:1022C200232B333B020A121A626A727A0008101830
:1022D2002028131B030B7262524280250000030365
:1022E20000012424000000000000000046504710B6
:1022F200D8A47EEF11F080EF11F084EF11F0000E00
:10230200486E9CEF11F0AB9E948C948E46C03AF0CE
:1023120047C03BF019EC08F046C003F047C004F098
:1023220080EC10F046C003F047C004F012EC10F04D
:10233200AB8E010E486E48501200000E0B6E000E5E
:102342000A6EB5EF11F00A500424086E0B500520F6
:10235200096E08C0F6FF09C0F7FFF86A0800F550D9
:10236200D9EC11F00A4A0B2A06500A5C07500B58A6
:10237200D8A0BEEF11F0C0EF11F0A4EF11F01200DF
:102382009D980001CB51CC11D8B4CAEF11F0CCEF1B
:1023920011F0D8EF11F002D8D8EF11F00500FA6E63
:1023A200CB51FD6ECC51FE6EFF6AFA501200120044
:1023B200036EACA2DFEF11F0E1EF11F0DAEF11F0F2
:1023C2009D8803C0ADFF010E12009E0E466E000EE8
:1023D200476E77EC11F00001F06F1200A19200013C
:1023E200CE51B36ECDC0B2FF12009E900001D45107
:1023F200CF6ED3C0CEFF1200F2940001D851D76E37
:10240200D7C0D6FF120032221202F0921200F090D0
:102412001200F2921200A19012009E9412009E9C51
:062422001200120012007E
:020000040020DA
:08000000FFFFFFFFFFFFFFFF00
:020000040030CA
:0E000000FF021F1EFF8981FF0FC00FE00F409F
:00000001FF
